:020000040800F2
:10000000000001203D3900087535000877350008EB
:10001000793500087B3500087D35000800000000B8
:10002000000000000000000000000000F1280008AF
:100030007F35000800000000812900088135000894
:100040008D3900088D3900088D3900088D39000878
:100050008D3900088D3900088D3900088D39000868
:100060008D3900088D3900088D3900088D39000858
:100070008D3900088D3900088D3900088D39000848
:100080008D3900088D3900088D3900088D39000838
:10009000853500088D3900088D3900088D39000834
:1000A0008D390008913500088D3900088D39000818
:1000B0008D3900088D3900088D3900088D39000808
:1000C0008D3900088D3900088D3900088D390008F8
:1000D0008D3900088D3900088D3900088D390008E8
:1000E0008D3900088D3900088D3900088D390008D8
:1000F0008D3900088D3900088D3900088D390008C8
:100100008D39000800000000000000008D39000853
:100110008D3900088D3900088D3900088D390008A7
:100120008D3900088D3900088D3900088D39000897
:100130008D3900088D390008000000000000000023
:100140008D3900088D3900088D3900080000000045
:10015000000000000000000000000000000000009F
:100160008D3900088D3900088D3900088D39000857
:100170008D3900088D3900088D3900088D39000847
:100180008D3900088D3900080000000000000000D3
:040190008D3900089D
:1001A00010B5054C237833B9044B13B10448AFF3B1
:1001B00000800123237010BD10010020000000000A
:1001C000E839000808B5034B1BB103490348AFF3F6
:1001D000008008BD0000000014010020E83900087C
:1001E000074A08B5136843F010031360032000F0BA
:1001F0001BF8002003F082F903F03AF9002008BD53
:1002000000200240034A044B11681B780B44136022
:10021000704700BF482A002000000020014B1868EA
:10022000704700BF482A0020074AD36823F4E063E0
:100230001B041B0C43F0BF63000243F4003300F4C3
:10024000E0600343D360704700ED00E0174B30B52A
:10025000DC68C4F30224C4F10703251D042B28BF66
:100260000423062D4FF0010505FA03F303F1FF33D4
:100270008CBF033C00241940A14005FA04F4013C62
:100280002240002842EA01024FEA0212AFBF00F109
:10029000604000F00F00064BD2B2A5BF00F56140F0
:1002A000D2B21A5480F8002330BD00BF00ED00E048
:1002B00014ED00E04209012300F01F0003FA00F0F2
:1002C000014B43F82200704700E100E00138B0F133
:1002D000807F0AD2064B074A5860F02182F823102B
:1002E0000020072298601A6070470120704700BF05
:1002F00010E000E000ED00E0044B1A6804280CBF99
:1003000042F0040222F004021A60704710E000E09C
:100310002DE9F74FD1F80080DFF89091614A002372
:1003200038FA03F402D103B0BDE8F08F4FF0010EAC
:100330000EFA03FE18EA0E0600F0A6804C6824F0C0
:100340001007022F16D14FEAD30A00EB8A0A03F0F6
:10035000070BDAF820504FEA8B0B4FF00F0C0CFA1A
:100360000BFC25EA0C0C0D6905FA0BF545EA0C05AA
:10037000CAF820504FEA430A0325D0F800B005FA26
:100380000AF5ED4304F0030C0BEA050B0CFA0AFC2A
:10039000013F4CEA0B0C012FC0F800C011D8876850
:1003A00007EA050BCF6807FA0AFC4CEA0B078760DF
:1003B000476827EA0E0EC4F300179F4047EA0E076E
:1003C0004760C7683D408F6807FA0AF73D43C5603C
:1003D000E50059D5D9F8185045F00105C9F818506D
:1003E000D9F8185023F0030707F1804705F00105FD
:1003F00007F58037019503F0030C019DBD684FEAB6
:100400008C0C4FF00F0E0EFA0CFEB0F1904F25EA57
:100410000E0E3BD0244DA8423AD005F58065A84287
:1004200038D005F58065A84236D005F58065A8422C
:1004300034D005F58065A84232D005F58065A84224
:1004400014BF0725062505FA0CF545EA0E05BD6023
:100450001568F74314F4803F0CBF3D4035431560E9
:10046000556814F4003F0CBF3D4035435560956816
:1004700014F4801F0CBF3D4035439560D568A4023D
:1004800054BF3D403543D560013349E70025DAE7E5
:100490000125D8E70225D6E70325D4E70425D2E7CE
:1004A0000525D0E700040140000400480010024088
:1004B0000AB1816170478162704738B504460028EF
:1004C0004DD090F8713303F0FF021BB980F8702310
:1004D00003F0CAF803230021606884F871330A46E8
:1004E00004F128030125814203F11C031BD10020E4
:1004F00004F5E6720346814202F11C0221D1226812
:1005000001214FF43F40A2F84010A2F84030A2F879
:100510004430A2F85030A2F8400084F82430002083
:1005200084F8711338BD03F81C1C03F81B5C03F836
:10053000192C43F8102C43F80C2C43F8082C0131EB
:10054000D1E702F81C0C02F81B3C02F8193C42F8F7
:10055000103C42F80C3C42F8083C0130CBE701204B
:1005600038BD08B5012103F096F9002008BD90F8C8
:100570007033012B0FD0012380F8703341B9036829
:100580008022A3F84C20002380F87033184670476F
:1005900080F82410F7E7022070470000F0B54CB255
:1005A000002C01F07F064FF01C05B5BF05FB0601CE
:1005B00005FB0101283101F5E671E40F0E704C7066
:1005C000CB7090F87033CA60012B00F07781012363
:1005D00080F87033CD780C780368032D10D8DFE8ED
:1005E00005F0026D576124B233F8245025F4EC4530
:1005F00025F070052D042D0C45F4007523F82450CA
:100600000C7827B240F60F7533F8276044F40044A5
:100610002E4044F08004344323F827408E7A0C782F
:10062000002E40F0998091F801E08F880826BEF1F5
:10063000000F4FD0B3F8502092B216FB04241C4494
:1006400027F00107A4F800740C7833F82420520630
:1006500008D533F82420154045F4004545F0C00581
:1006600023F82450097833F8212022F4E04222F0C4
:1006700040021204120C82F0200242F4004242F0C6
:10068000800223F82120002380F870331846F0BD43
:1006900024B233F8245025F4EC4525F070052D04E0
:1006A0002D0CABE724B233F8245025F4EC4525F0AB
:1006B00070052D042D0C45F4C0659FE724B233F876
:1006C000245025F4EC4525F070052D042D0C45F43F
:1006D000806593E7B3F85050ADB216FB04541C4448
:1006E00027F00107A4F80474B3F850400D78A4B2C1
:1006F0003E2A16FB054403F2064627D95509D706BC
:1007000008BF05F1FF356E4A08BFADB242EA852544
:10071000A5530C7833F8242057040BD533F8242044
:1007200022F0F0021205120D42F4404242F0800223
:1007300023F82420097833F8212022F4804222F083
:1007400070021204120C82F4405296E75508D20748
:1007500048BF0135AD02DBE724B233F8242022F490
:10076000F8721205120D42F4014242F0800223F8A1
:100770002420B3F85040A6B20C78082212FB04647F
:10078000CE881C4426F00106A4F80064B3F850405B
:100790000E78A4B212FB06420C891A4424F001041C
:1007A000A2F804440A784C7812B2002C45D133F8F0
:1007B0002240660408D533F82240254045F44045E0
:1007C00045F0800523F822500C7833F82420550694
:1007D0000BD533F8242022F0F0021205120D42F45A
:1007E000004242F0C00223F824200C7833F8242081
:1007F00022F0F0021205120D42F4004242F0C00253
:1008000023F824200D7833F8252022F4804222F0AA
:1008100070021204120C82F4405248F28004224307
:1008200023F82520097833F8212022F4E04222F031
:1008300040021204120C224323E733F822406404DE
:1008400008D533F82240254045F4404545F0800561
:1008500023F822500C7833F8242052060BD533F8B5
:10086000242022F0F0021205120D42F4004242F060
:10087000C00223F824200C7833F8242022F0F00260
:100880001205120D42F4404242F0800223F8242067
:100890000D7833F8252022F4E04222F040021204C1
:1008A000120C48F28004224323F82520097833F8FB
:1008B000212022F4804222F07002BAE70220F0BD2B
:1008C0000080FFFF4BB2002B30B54FF01C0201F04F
:1008D0007F04B5BF02FB040102FB0101283101F5D1
:1008E000E671DB0F0C704B7090F87033012B00F049
:1008F000D480012380F870330A788D7A4C780368AD
:1009000012B2002D3CD11CB333F8224064060BD543
:1009100033F8224024F0F0042405240D44F400446C
:1009200044F0C00423F82240097833F8212022F44F
:10093000E04222F040021204120C42F4004242F063
:10094000800223F82120002380F87033184630BD40
:1009500033F8224065040BD533F8224024F0F0042C
:100960002405240D44F4404444F0800423F822403C
:10097000097833F8212022F4804222F07002DAE76D
:10098000002C46D133F8224064040BD533F82240C2
:1009900024F0F0042405240D44F4404444F0800481
:1009A00023F822400C7833F8242055060BD533F871
:1009B000242022F0F0021205120D42F4004242F00F
:1009C000C00223F824200C7833F8242022F0F0020F
:1009D0001205120D42F4004242F0C00223F8242016
:1009E0000D7833F8252022F4804222F070021204A0
:1009F000120C48F28004224323F82520097833F8AA
:100A0000212022F4E04222F040021204120C224380
:100A100097E733F8224064040BD533F8224024F0E2
:100A2000F0042405240D44F4404444F0800423F8E9
:100A300022400C7833F8242052060BD533F82420BA
:100A400022F0F0021205120D42F4004242F0C00200
:100A500023F824200C7833F8242022F0F002120529
:100A6000120D42F4404242F0800223F824200D7817
:100A700033F8252022F4E04222F040021204120C46
:100A800048F28004224323F82520097833F82120F6
:100A900022F4804222F07002B7E7022030BD00004D
:100AA00070B501F07F011C2404FB01050026C5F888
:100AB000DC21D5F8D821C5F8E031934286BF9B1AD6
:100AC000C5F8E0311A4604FB0103C5F8E46185F876
:100AD000CD6185F8CC1198BFC5F8E06193F8D65187
:100AE00004686DBBB4F8505093F8CC31ADB23E2AD7
:100AF00005EBC30504F2064633D9C2F34F13D20601
:100B000008BF03F1FF331B4A08BF9BB242EA8323AD
:100B1000AB531C2303FB010090F8CC2134F82230A6
:100B200023F4804323F070031B041B0C83F4405315
:100B300043F4004343F0800324F82230002070BDCA
:100B400093F8CD51002DCDD0012DE2D1B4F8505005
:100B500093F8CC31ADB205EBC3032344A3F80624CC
:100B6000D7E7C2F34F03D20744BF01339BB29B02C6
:100B7000CEE700BF0080FFFFF8B501F07F071C241F
:100B800004FB070105464E6BCB63B34288BF9B1B3A
:100B90008A634FF001004FF0000204FB07540A641F
:100BA00081F8290081F828708EBFCB63CA631E4686
:100BB00094F83230B6B243BB3346A28DA16B28689D
:100BC00000F066FB2A6894F82810B2F850309BB207
:100BD00003EBC1031344A3F802641C2303FB075770
:100BE0002A6897F8281032F8213023F4E04323F0E4
:100BF00040031B041B0C83F0300343F4004343F019
:100C0000800322F821300020F8BD94F828302868AD
:100C100030F823305B064CBF228EE28D1C2404FB8F
:100C200007543346A16B00F033FB94F829302A684F
:100C300073B994F8281032F8213023F0F0031B0523
:100C40001B0D43F4004343F0C00322F82130C4E7F6
:100C5000012BC2D194F8281032F8213023F0F00390
:100C60001B051B0D43F4404343F08003EDE70000F8
:100C70000368B3F844301B042DE9F347044672D4EB
:100C80002368B3F8442057050AD54FF6FF322046B3
:100C9000A3F8442002F021FD00212046FFF767FC65
:100CA0002368B3F84420520444BF4BF6FF72A3F804
:100CB0004420B3F84420970444BF4DF6FF72A3F8D4
:100CC0004420B3F84420D60417D5B3F8402022F0CE
:100CD00004021204120CA3F84020B3F8402022F0C2
:100CE00008021204120CA3F84020204602F012FD64
:100CF00023684EF6FF72A3F844202368B3F844201B
:100D0000150518D5B3F8402092B242F00802A3F8B6
:100D100040204FF2FF72A3F84420B3F8402092B273
:100D200042F00402A3F84020B3F84430D80402D4BF
:100D3000204602F0DFFC2368B3F84420910506D575
:100D40004FF6FF52A3F84420204602F0C2FC23686D
:100D5000B3F84420D20544BF4FF6FF62A3F8442005
:100D600002B0BDE8F0870023C14FDFF80883DFF849
:100D70000893ADF806302068B0F844309BB21904EF
:100D8000ADF804307FF57CAFBDF8046016F00F06B7
:100D900040F0A480BDF80410038811F010019BB24C
:100DA00025D13B400380B0F8503094F828209BB206
:100DB00003EBC2031844A26BB0F80234C3F3090377
:100DC00023641344A363204602F07BFC94F8243090
:100DD000002BD0D0E26B002ACDD194F824302168CA
:100DE00043F08003A1F84C3084F82420C3E7ADF829
:100DF0000630BDF806301E051ED5B0F8503094F808
:100E0000CC219BB203EBC2030344B4F8D021B3F866
:100E10000634C3F30903C4F8E43104F55D7100F04E
:100E200049FA2268138823F070031B051B0D1380F9
:100E3000204602F037FC9EE7BDF806301D049AD527
:100E4000038823F070031B051B0D0380B0F850309E
:100E500094F8CC219BB203EBC2030344B3F80634ED
:100E6000C3F30903C4F8E43163B1B4F8D021D4F872
:100E7000DC1100F01FFAD4F8DC31D4F8E42113447B
:100E8000C4F8DC310021204602F012FC2268D4F8BC
:100E9000D811B2F850003E2980B202F2064515D9A9
:100EA000C1F34F13C90604BF03F1FF339BB249EAF4
:100EB00083232B5213889BB203EA080383F4405325
:100EC00043F4004343F08003138054E7C1F34F031E
:100ED000CE0744BF01339BB29B02EAE70FFA86FAC2
:100EE00030F82A309BB2ADF80630BDF806301D044C
:100EF0003FD530F82A3023F070031B051B0D1C2151
:100F000020F82A3001FB064191F8D631002B70D130
:100F1000B0F8503091F8CC219BB203EBC2030344EC
:100F2000B3F80654C5F3090535B1B1F8D021D1F8AD
:100F3000DC112B4600F0BEF91C2101FB0641D1F863
:100F4000E431D1F8DC212B44C1F8E431D1F8E031AF
:100F50002A44C1F8DC2123B1D1F8D801854280F0C0
:100F600081801C2303FB0643204693F8CC1102F03A
:100F70009FFBBDF8063018067FF5FDAE206830F8FF
:100F80002A309BB23B401C2120F82A3001FB06414D
:100F900091F83230002B71D1B0F8503091F8282000
:100FA0009BB203EBC2030344B3F80234C3F3090357
:100FB0000B641BB18A8D896B00F06AF922681C21D1
:100FC00001FB0646B2F8503096F828109BB203EBAE
:100FD000C10313442046B3F80224B36BC2F30902E1
:100FE00032641A44F36BB263002B7DD102F069FBCB
:100FF000C1E691F8CC512BB230F82330B0F8502034
:1010000013F4804F92B24FF0080313FB05230344FF
:101010001ED0B3F80254C5F3090535B1B1F8D22199
:101020002B46D1F8DC1100F045F91C2303FB0643E5
:10103000226893F8CC1132F8213023F0F0031B051D
:101040001B0D43F4004343F0C00322F8213073E743
:10105000B3F80654C5F30905002DE6D02B46B1F8C8
:10106000D421DEE791F8CC112046FFF719FD80E787
:101070000F8FFFFF8FBFFFFF0080FFFF91F8285009
:101080002BB230F82330B0F8502013F0400F92B25A
:101090004FF0080313FB052303441CD0B3F80234BC
:1010A000C3F309030B641BB1CA8D896B00F0F0F820
:1010B0001C2303FB0643226893F8281032F82130E2
:1010C00023F0F0031B051B0D43F4404343F0800362
:1010D00022F8213072E7B3F80634C3F309030B6436
:1010E000002BE5D00A8EE0E7FFF746FD43E600BFA0
:1010F00090F87033012B10B549D04CB201231C225B
:1011000080F87033002C01F07F03B5BF02FB0302AF
:1011100002FB0102283202F5E67201219170D9B278
:10112000E30F117053700268A1B9138823F4804350
:1011300023F040031B041B0C83F4805383F0100343
:1011400043F4004343F080031380002380F870339E
:10115000184610BD09B2002C32F821300EDA23F403
:10116000E04323F040031B041B0C83F0100343F403
:10117000004343F0800322F82130E6E723F4804364
:1011800023F070031B041B0C83F48053EFE7022051
:1011900010BD4BB2002B10B54FF01C0201F07F04C4
:1011A000B5BF02FB040102FB0101283101F5E67124
:1011B000DB0F00228A700C704B7090F87033012B9B
:1011C00049D0012380F870330B784C7802681BB249
:1011D0002CB332F8234064060BD532F8234024F0B8
:1011E000F0042405240D44F4004444F0C00422F823
:1011F0002340097832F8213023F4E04323F0400300
:101200001B041B0C83F0300343F4004343F08003C2
:1012100022F82130002380F87033184610BD32F8D0
:10122000234064040BD532F8234024F0F004240555
:10123000240D44F4404444F0800422F8234009780B
:1012400032F8213023F4804323F070031B041B0C7D
:1012500083F44053D8E7022010BD11F0800F10B581
:1012600018BF01F07F014FF01C0415BF04FB010003
:1012700004FB0100283000F5E6701AB98272838001
:10128000002010BD0122C3801B0C82720381F7E78E
:1012900010B500F580600133024423F001031046CD
:1012A0001344841A98420C4400D110BD248820F8BD
:1012B000024BF6E700F58060F0B502445D08084691
:1012C00017462E46023036B9DB0744BF32F81530D8
:1012D00001F81530F0BD37F8024B00F8024C240A33
:1012E00000F8014C013EEDE72DE9F347054618B93A
:1012F000012002B0BDE8F0870368DF0711D42B6836
:101300009E0700F188802B681C0700F1FC802B6889
:10131000580700F14581AA69002A40F0DC810020CD
:10132000E7E7BD4C636803F00C03042B0AD0636845
:1013300003F00C03082B19D1636803F4C033B3F531
:10134000803F13D14FF4003393FAA3F2216893FA4C
:10135000A3F3B3FA83F303F01F03012202FA03F3AA
:101360000B42CCD06B68002BC9D1C1E76B68B3F5D9
:10137000803F1ED1236843F480332360FEF74EFF85
:101380004FF400368046012796FAA6F3226896FAB3
:10139000A6F3B3FA83F303F01F0307FA03F3134230
:1013A000ADD1FEF73BFFA0EB08006428ECD9032089
:1013B0009FE70BBB236823F480332360236823F467
:1013C00080232360FEF72AFF4FF400368046012772
:1013D00096FAA6F3226896FAA6F3B3FA83F303F01B
:1013E0001F0307FA03F3134289D0FEF717FFA0EBA0
:1013F00008006428ECD9DAE7B3F5A02F236803D1FD
:1014000043F480232360B5E723F48033236023680B
:1014100023F48023B1E7804C636813F00C0F0AD0EB
:10142000636803F00C03082B25D1636803F4C03311
:10143000B3F5004F1FD1022393FAA3F2216893FA68
:10144000A3F3B3FA83F303F01F03012202FA03F3B9
:101450000B4203D0EB6893427FF44AAF2168F82334
:1014600093FAA3F3B3FA83F22B69934021F0F802C5
:101470001343236047E7EA6801260AB396FAA6F306
:10148000B3FA83F303F1845303F584139B0002271B
:101490001E60FEF7C3FE804697FAA7F3226897FA0C
:1014A000A7F3B3FA83F303F01F0306FA03F313421F
:1014B000D4D1FEF7B3FEA0EB08000228ECD976E702
:1014C00096FAA6F3B3FA83F303F1845303F5841376
:1014D0009B0002271A60FEF7A1FE804697FAA7F349
:1014E000226897FAA7F3B3FA83F303F01F0306FA0F
:1014F00003F313423FF407AFFEF790FEA0EB0800A2
:101500000228EBD953E76A69434E444901241AB3D0
:1015100094FAA4F3B3FA83F30B449B0002271C60F4
:10152000FEF77CFE804697FAA7F397FAA7F397FA9F
:10153000A7F3726A97FAA7F3B3FA83F303F01F03D2
:1015400004FA03F313427FF4E2AEFEF767FEA0EB6A
:1015500008000228E7D92AE794FAA4F3B3FA83F340
:101560000B449B0002271A60FEF758FE804697FA4C
:10157000A7F397FAA7F397FAA7F3726A97FAA7F374
:10158000B3FA83F303F01F0304FA03F313423FF4A7
:10159000BEAEFEF743FEA0EB08000228E7D906E73F
:1015A0001D4CE369D90034D4E36943F08053E3610F
:1015B000E36903F080530193019B0126184F3B68B8
:1015C000DA052FD5AB68012B3DD1236A43F0010327
:1015D0002362FEF723FE02278246B9464FF0010838
:1015E00097FAA7F397FAA7F3002B6CD0226A99FA1F
:1015F000A9F3B3FA83F303F01F0308FA03F31342CA
:1016000058D0002E3FF487AEE36923F08053E361A6
:1016100081E60026D2E700BF001002402081901032
:10162000007000403B6843F480733B60FEF7F6FDBA
:1016300080463B68DB05C5D4FEF7F0FDA0EB080053
:101640006428F6D9B3E63BBB236A23F00103236287
:10165000236A23F004032362FEF7E0FD022782469B
:10166000B9464FF0010897FAA7F397FAA7F373B3B7
:10167000226A99FAA9F3B3FA83F303F01F0308FA75
:1016800003F31342BDD0FEF7C9FD41F28833A0EB4E
:101690000A009842E7D98AE6052B236A03D143F072
:1016A0000403236291E723F001032362236A23F0FA
:1016B00004038DE7FEF7B2FD41F28833A0EB0A0088
:1016C00098428DD973E697FAA7F3626A8FE797FA83
:1016D000A7F3626ACDE7444C636803F00C03082B60
:1016E0003FF406AE022A4FF0807358D193FAA3F369
:1016F000B3FA83F303F1845303F584139B000022B0
:101700001A60FEF78BFD4FF000778046012697FAAE
:10171000A7F3226897FAA7F3B3FA83F303F01F0342
:1017200006FA03F3134233D1E36A6A6A23F00F0324
:101730001343E36262682B6AE96922F476120B4371
:10174000134363604FF0807393FAA3F3B3FA83F308
:1017500003F1845303F584139B004FF000751E6062
:10176000FEF75CFD0126074695FAA5F3226895FA77
:10177000A5F3B3FA83F303F01F0306FA03F313424E
:101780007FF4CDADFEF74AFDC01B0228ECD90EE672
:10179000FEF744FDA0EB08000228B8D907E693FA4B
:1017A000A3F3B3FA83F303F1845303F584139B008B
:1017B00000221A60FEF732FD4FF000750746012641
:1017C00095FAA5F3226895FAA5F3B3FA83F303F02B
:1017D0001F0306FA03F313423FF4A1ADFEF71EFD0B
:1017E000C01B0228ECD9E2E50010024011494B6809
:1017F00003F00C02082A1AD14FF4701292FAA2F2E6
:101800000F20B2FA82F2C96A90FAA0F0B0FA80F022
:1018100001F00F0103F47013D340C140064A07489A
:10182000415C0748B0FBF1F1D05C48437047044885
:10183000704700BF00100240143A0008243A000824
:1018400000127A002DE9F0410D46044610B901203E
:10185000BDE8F0814C4A136803F007038B422ED396
:101860002268910736D4D2073CD4474A136803F064
:1018700007039D4275D32268444D12F0040F7CD1BA
:10188000130706D56B68226923F4605343EAC20349
:101890006B60FFF7ABFF6B68F02292FAA2F2B2FA2C
:1018A00082F203F0F003D340394AD35CD840394B7D
:1018B0001860002001F022FE0020BDE8F0811368CE
:1018C00023F007030B431360136803F007039942E7
:1018D000BDD1C5E72D49A0684B6823F0F003034351
:1018E0004B60C0E76268294E012A27D14FF40033CC
:1018F00093FAA3F1316893FAA3F3B3FA83F303F0F5
:101900001F0302FA03F30B42A1D0736823F0030311
:101910001A437260FEF782FC41F28838074673680A
:10192000626803F00C03B3EB820F9ED0FEF776FCE7
:10193000C01B4045F3D90320BDE8F081022A0CBF4B
:101940004FF00073022393FAA3F1306893FAA3F3E4
:10195000B3FA83F303F01F03012101FA03F30342F7
:10196000D2E7136823F007032B431360136803F0D7
:1019700007039D427FF46BAF7DE76B68E16823F45A
:10198000E0630B436B607BE70020024000100240E5
:10199000453A0008BC000020014B1868704700BFA2
:1019A000BC000020084B4FF460525B6892FAA2F230
:1019B000B2FA82F203F46053D340044AD35C044A7F
:1019C0001068D840704700BF00100240553A000828
:1019D000BC0000200F2303600B4B5A6802F0030287
:1019E00042605A6802F0F00282605A6802F4E062D3
:1019F000C2605B68DB0803F4E0630361034B1B68B0
:101A000003F007030B607047001002400020024003
:101A100003682DE9F347DF03044623D59B4DEB69AB
:101A2000DE0000F1D780EB6943F08053EB61EB6996
:101A300003F080530193019B0126954F3B68D80525
:101A400040F1CA802B6A13F4407340F0DA802B6AAD
:101A5000626823F4407313432B621EB1EB6923F0D9
:101A60008053EB612068C30706D5884AA168136BD1
:101A700023F003030B431363870706D5834AE1680A
:101A8000136B23F440330B431363460706D57F4A99
:101A90002169136B23F440230B431363850606D59A
:101AA0007A4AE169136B23F010030B43136381033C
:101AB00006D5764A616D536823F480030B43536067
:101AC000420606D5714A216A136B23F020030B43AB
:101AD0001363430306D56D4A616A136B23F0400319
:101AE0000B431363070706D5684A6169136B23F438
:101AF00040130B431363C60606D5644AA169136BF2
:101B000023F440030B431363850506D55F4A216B1D
:101B1000536823F400030B435360010606D55B4A68
:101B2000A16AD36A23F4F8730B43D362C20506D5C6
:101B3000564AE16AD36A23F478530B43D362C30451
:101B400006D5524A616B136B23F480730B43136306
:101B5000870406D54D4A216C136B23F400730B43A5
:101B60001363C60206D5494AA16B136B23F0807339
:101B70000B431363850206D5444AE16B136B23F0D4
:101B800000730B431363410206D5404A616C136B2B
:101B900023F480630B431363020206D53B4AA16C16
:101BA000136B23F400630B431363C30106D5374A59
:101BB000E16C136B23F400530B43136310F00070BC
:101BC0001CD0324A216D136B23F400430B43136383
:101BD000002013E0002630E73B6843F480733B604D
:101BE000FEF71CFB80463B68D9053FF52BAFFEF79F
:101BF00015FBA0EB08006428F5D9032002B0BDE86E
:101C0000F087626802F4407293423FF420AF296A81
:101C10004FF4803321F4407093FAA3F2DFF874E0BC
:101C2000B2FA82F2724492000127176093FAA3F38A
:101C3000B3FA83F373449B0000221A60CA07286238
:101C40007FF505AFFEF7EAFA4FF002088246C1467B
:101C500098FAA8F398FAA8F3A3B12A6A99FAA9F313
:101C6000B3FA83F303F01F0307FA03F313427FF47D
:101C7000EEAEFEF7D3FA41F28833A0EB0A009842A9
:101C8000E6D9BAE798FAA8F36A6AE7E700100240D3
:101C9000007000400081901070470368DA6842F0DD
:101CA0000102DA601A6842F001021A6000207047EF
:101CB000704770477047704703681A69910710B5FD
:101CC00004460FD5DA6892070CD56FF002021A614C
:101CD0009B6901229907027700F08580FFF7E9FFF1
:101CE0000023237723681A69520710D5DA68500752
:101CF0000DD56FF004021A619B69022213F4407F34
:101D00002277204675D0FFF7D4FF0023237723687E
:101D10001A6911070FD5DA6812070CD56FF008029F
:101D20001A61DB6904229B072277204667D0FFF700
:101D3000C0FF0023237723681A69D00610D5DA681C
:101D4000D1060DD56FF010021A61DB69082213F479
:101D5000407F2277204658D0FFF7ABFF0023237740
:101D600023681A69D20708D5DA68D00705D56FF05D
:101D700001021A61204601F06FFB23681A691106FF
:101D800008D5DA68120605D56FF080021A61204680
:101D900000F0C7F823681A69D00508D5DA6811067B
:101DA00005D56FF480721A61204600F0BBF82368F5
:101DB0001A69520608D5DA68500605D56FF0400258
:101DC0001A612046FFF777FF23681A69910622D52A
:101DD000DA6892061FD56FF0200220461A61BDE82E
:101DE000104000F09DB8FFF763FF2046FFF762FF49
:101DF00076E7FFF75DFF2046FFF75CFF85E7FFF71B
:101E000057FF2046FFF756FF93E7FFF751FF2046A5
:101E1000FFF750FFA2E710BD324A0368904212D08C
:101E2000B0F1804F0FD0A2F5943290420BD002F562
:101E30008062904207D002F59632904203D002F5BC
:101E4000E052904215D14A6823F070031343254AAB
:101E500090421DD0B0F1804F1AD0A2F5943290423A
:101E600016D002F58062904212D002F5963290426E
:101E70000ED01D4A90420BD002F58062904207D0EE
:101E800002F58062904203D002F50062904203D1D5
:101E9000CA6823F4407313434A6923F08003134351
:101EA00003608B68C3620B6883620E4B984213D049
:101EB00003F5006398420FD003F5406398420BD0BE
:101EC00003F58063984207D003F58063984203D0FE
:101ED00003F50063984201D10B6903630123436159
:101EE000704700BF002C01400040014010B504467F
:101EF000A0B190F83D3003F0FF021BB980F83C2000
:101F0000FFF7CAFE022384F83D302068211DFFF749
:101F100083FF012384F83D30002010BD012010BD57
:101F200070477047704700006D230380004870477A
:101F30003C00002038B5D0F8184241F68A35635D80
:101F4000012B10D141F6CC33E35C022B0BD1D0F83E
:101F50001C3241F68B321B69A05C984741F6CB32AC
:101F600000236355A354002038BD00207047002093
:101F7000704700000A23038000487047AC0000202F
:101F80000129F8B50A46054620D1D0F8184241F695
:101F90008830235A58339BB2B3F5DC5F18D02352F4
:101FA00041F68533E25C3AB941F68832A25AB2F57D
:101FB0005C6F04BF0122E25441F688330121E25AEA
:101FC000043258232244284601F052FC0020F8BD78
:101FD00041F684360027A35D2752032BE0D1D5F8C4
:101FE0001C324FF45C619B68201D9847A755D7E7CA
:101FF00010B50446012101F0E1FBD4F818325BB1C1
:10200000D4F81C3200205B689847D4F8180201F01D
:1020100041FC0023C4F81832002010BD012270B525
:1020200058231146064601F0B9FB41F6D03001F0C5
:102030002DFC0446C6F8180208B9022070BD41F60E
:102040008433002203210260C15441F688334621C3
:10205000C25241F68633C25241F68533C254D6F895
:102060001C3245F254601B68984705460028E4D1AD
:102070005823221D0121304601F0FAFB284670BD8D
:10208000F8B50C78D0F8185214F0600407460E46E4
:1020900029D0202C11D14C78012C10D0812C41D189
:1020A00005F5DC550B3540220021284601F094FC53
:1020B000F2882946384600F021FB002425E0CA8832
:1020C000A2B305F5DC510B3100F02DFB41F68A334C
:1020D000EC5441F6CB33F288EA54B38841F6CC3263
:1020E0001B0AAB54E9E74B780A2B10D00B2B11D00D
:1020F000062B17D14B881B0A212B06D1CA880C4905
:10210000092A28BF092200F0F9FA2046F8BD012269
:102110002946F8E78B78012B01D82B60F5E700F012
:10212000C6FAF2E700F0C3FA0224EEE71446ECE741
:102130004E000020002070470020704700207047AC
:1021400009B1C0F81C120020704708B580B1D0F862
:10215000143213B10023C0F8143209B1C0F81012C0
:10216000012380F8FC31027001F0D8FA002008BD8C
:10217000022008BD19B1C0F81412002070470220D7
:10218000704708B501F0FCFA002008BD08B5D0F88A
:1021900014320BB9022008BD1B6898470028F9D1FA
:1021A00008BD08B5D0F814325B689847002008BD18
:1021B00038B5044600F50275284600F064FA01239C
:1021C00094F80812C4F8F431B4F80E32C4F8F831B7
:1021D00001F01F03012B0ED007D3022B10D001F00A
:1021E0008001204601F0F8FA03E02946204600F07D
:1021F000D5F8002038BD2946204600F0C9F9F8E797
:102200002946204600F0DCF9F3E738B504461546C8
:1022100011BBD0F8F431032B0FD1D0F80C31D0F82A
:10222000102193420BD99B1A9A4228BF1A46C0F834
:102230000C3192B2294600F085FA002038BDD0F862
:1022400014321B6923B190F8FC21032A00D198476E
:10225000204600F07FFAF0E7D0F814329B69002B9B
:10226000EBD090F8FC21032AE7D19847E5E770B559
:10227000134604460E4600293DD1D0F8F421022A27
:102280000FD1C569026A954214D9AA1AC2611946CA
:1022900092B200F040FA33461A461946204601F041
:1022A000E7FA94F80032012B02D1002384F80032BF
:1022B000002070BD8369B3FBF2F502FB153565B9EB
:1022C0009A420AD8D0F8F821934206D22A4600F062
:1022D00022FAC4F8F8512B46DEE7D4F81432DB6852
:1022E0002BB194F8FC21032A01D1204698472046BF
:1022F00000F03BFAD5E7D0F814325B69002BD7D059
:1023000090F8FC21032AD3D19847D1E738B50022B1
:10231000044611464025402301F040FA2B46C4F8FC
:10232000105100228021204601F038FA012384F860
:10233000FC31D4F8183225622BB1D4F8143221794B
:102340005B6820469847002038BD01740020704724
:1023500090F8FC3180F8FD31042380F8FC31002036
:10236000704790F8FD3180F8FC310020704708B5C7
:1023700090F8FC21032A04D1D0F81432DB6903B1B0
:102380009847002008BD10B58021044601F024FACA
:1023900020460021BDE8104001F01EBA37B54B7849
:1023A00004460D46092B79D8DFE813F0C900E50093
:1023B0007800D90078006D000A007800B9008D001F
:1023C0004B881A0A013A062A68D8DFE802F0041C92
:1023D000296767495200D0F810321B68207C0DF144
:1023E00006019847BDF80620002A67D0EB88002B2D
:1023F00064D09A4228BF1A46ADF80620014620460E
:1024000000F07CF95AE0027CD0F8143232B99B6AB1
:102410000DF10600984702234370E3E7DB6AF7E714
:10242000DBB2052B3AD8DFE803F003070B0F1317D5
:10243000D0F810325B68D1E7D0F810329B68CDE756
:10244000D0F81032DB68C9E7D0F810321B69C5E755
:10245000D0F810325B69C1E7D0F810329B69BDE754
:10246000037CDBB9D0F814320DF106005B6B9847A2
:10247000B8E7037C93B9D0F814320DF106001B6B5A
:1024800098470723C8E78B8843B9CB8833B990F8BE
:10249000FC318D78032B05F07F0503D12046FFF733
:1024A00072FF0BE080F8FE51294601F0C5F9204685
:1024B00000F050F92DB1022384F8FC31002003B064
:1024C00030BD0123F8E78978304D01292970E5D81E
:1024D00090F8FC31022B0CD0032BDFD1B1B90223D1
:1024E00080F8FC314160FFF75CFE204600F032F9D5
:1024F000E4E70029F9D001210323416080F8FC3191
:102500002046FFF743FE0228EFD1C7E741680129C3
:10251000EBD0C9B2FFF745FE29786160F0E7CA88C1
:10252000012ABBD190F8FC31022B03D0032BB5D18B
:10253000011D64E70146002341F8083F5FE790F87A
:10254000FC31023B012BA9D80123C360D0F804322F
:102550000BB10323C360022204F10C014FE74B8847
:10256000012BABD1C4F80432D4F8143229469B684D
:1025700020469847B9E790F8FC31023B012B8DD8F3
:102580004B88012B9AD10023ECE700BF2C010020DF
:1025900038B590F8FC31032B04460D460DD10B796C
:1025A000012B0AD8D0F814329B689847EB8813B9EE
:1025B000204600F0CFF8002038BDFFF7E4FEFAE730
:1025C00070B50A788E8802F06002202A04460D4613
:1025D000F3B205D1D0F814329B689847002070BD43
:1025E0004A78012A1CD02AD3032AF7D190F8FC217B
:1025F000022A40D0032A02D0FFF7C5FEEEE74A8840
:1026000022B95E0602D0194601F0E6F8D4F8143279
:1026100029469B6820469847204600F09BF8DDE756
:1026200090F8FC21022A26D0032AE5D14A88002A04
:10263000D4D15906F0D0194601F0DCF8E6E790F85D
:10264000FC21022A17D0032AD6D103F07F0516F009
:10265000800F00EB0515194614BF143505F582757A
:1026600001F0D6F868B101232B60022229462046EA
:1026700000F044F8B2E75A06B0D0194601F0ACF8C1
:10268000ACE72860F1E70B7803704B784370CA78A9
:102690008B7803EB022343804A790B7903EB022307
:1026A0008380CA798B7903EB0223C380704710B50E
:1026B0008021044601F090F820460021BDE810403A
:1026C00001F08AB830B588B105462B1A15F8014BD0
:1026D000DBB2002CF9D15B00023313800B700323B3
:1026E0004B700138022310F8015F05B930BD5A1C48
:1026F000D2B2CD540233DBB28C54F4E710B513469A
:102700000222C0F8F42183610A46C361002101F06E
:10271000A1F8002010BD08B513460A46002101F0BB
:1027200099F8002008BD10B513460322C0F8F42123
:10273000C0F808310A46C0F80C31002101F098F8C1
:10274000002010BD08B513460A46002101F090F89C
:10275000002008BD08B50423C0F8F43100231A4650
:10276000194601F077F8002008BD08B50523C0F828
:10277000F43100231A46194601F07AF8002008BD0A
:1027800008B500F0E1FB002008BD30B5B0F9084005
:10279000028A0B4690E8220085B0842C14BF0334D3
:1027A000002403A801900094284600F0FDFA0128B7
:1027B0000CBF0398002005B030BD08B5002808BF45
:1027C000012000F00FFD002008BD08B500F0A2FDBB
:1027D000012803D0BDE8084000F004B908BD00F1AD
:1027E000080343604FF0FF32C3600361002382603F
:1027F0000360704700230361704743684B609A6829
:102800008A609A68516099600368086101330360C7
:1028100070470A68531C30B50AD103695A684A6088
:1028200091608B605960036808610133036030BDBB
:1028300000F108035C682568AA42EFD32346F9E754
:102840004168826803698A60826851605968884279
:1028500008BF5A600022026118680138186070478A
:102860000A4B1B68013308D04FF0500383F31188E3
:10287000BFF36F8FBFF34F8FFEE74FF0500383F32B
:102880001188BFF36F8FBFF34F8FFEE7B8000020B2
:1028900006480068006880F3088862B661B6BFF336
:1028A0004F8FBFF36F8F00DF00BF000008ED00E027
:1028B000DFF80C00016841F470010160704700000E
:1028C00088ED00E04FF0807340F8043C074B40F87F
:1028D0000C3C21F001016FF0020340F8081C40F8A5
:1028E000202C40F8243C4438704700BF6128000881
:1028F000074B19680868B0E8F04F80F30988BFF308
:102900006F8F4FF0000080F311887047AFF30080A5
:102910004C0D00204FF0500383F31188BFF36F8FED
:10292000BFF34F8F0A4A13680133012B13600DD197
:10293000084B1B6813F0FF0F08D04FF0500383F3D0
:102940001188BFF36F8FBFF34F8FFEE7704700BF53
:10295000B800002004ED00E0084A136843B94FF0C6
:10296000500383F31188BFF36F8FBFF34F8FFEE7E0
:10297000013B13600BB983F311887047B800002046
:10298000EFF30980BFF36F8F154B1A681EF0100F1D
:1029900008BF20ED108A20E9F04F10604DF8043D8B
:1029A0004FF0500080F31188BFF34F8FBFF36F8F4C
:1029B00000F076FC4FF0000080F3118808BC196825
:1029C0000868B0E8F04F1EF0100F08BFB0EC108A96
:1029D00080F30988BFF36F8F704700BFAFF30080AB
:1029E0004C0D002008B54FF0500383F31188BFF35E
:1029F0006F8FBFF34F8F00F0EBFA18B1034B4FF01E
:102A000080521A60002383F3118808BD04ED00E0B2
:102A1000064B4FF47A721B68B3FBF2F3044A013B96
:102A20001360044B07221A60704700BFBC000020EF
:102A300014E000E010E000E0314B324A13B51968B1
:102A4000914208D14FF0500383F31188BFF36F8F89
:102A5000BFF34F8FFEE71A682B4B9A4208D14FF015
:102A6000500383F31188BFF36F8FBFF34F8FFEE7DF
:102A7000264B1A78D2B20192FF221A701B78244A90
:102A8000DBB28DF803309DF8033003F05003137070
:102A9000204B07221A6000219DF80300000602F176
:102AA000FF3423D401B11A601A68120202F4E06202
:102AB0001A60019B154ADBB21370174B1A6842F477
:102AC00070021A601A6842F070421A60FFF7A0FFA5
:102AD000124B00221A60FFF7EBFE114A136843F015
:102AE00040431360FFF7D4FEFFF7BAFE9DF80320C2
:102AF0005200D2B28DF8032001212246CCE700BF5C
:102B000000ED00E071C20F4170C20F4100E400E02F
:102B10002D0100203001002020ED00E0B800002051
:102B200034EF00E010B50F4B1A68824218D35C688E
:102B30001919884201BF416818460919596044684B
:102B400001198A4207D1084909688A421FBF5168A2
:102B50001268091941609842026018BF186010BDE0
:102B60001346E1E7440D0020340100202DE9F04137
:102B7000044600F025FA3E493E4D0B680BBB3E4A29
:102B800056071FBFD01D20F0070002F540631B1A37
:102B900014BF02464FF440631344083B23F007037D
:102BA000364E0B6000207060326058601860981AD2
:102BB0001360334B50601860324B18604FF0004385
:102BC0002B602F68274216D1002C41D004F1080356
:102BD00058071CBF23F00703083363B1294A16685E
:102BE000B342904607D8254A15686868834204D8DE
:102BF00009688D4207D100242AE02C68002CF7D008
:102C00002A462546F1E7296814681160C21A102A7D
:102C10000FD9E818410708D04FF0500383F311880B
:102C2000BFF36F8FBFF34F8FFEE742606B60FFF71C
:102C300079FF13496B680868F61A1F4386424FF004
:102C40000003C8F8006038BF0E6008346F602B6066
:102C500000F050FA630708D04FF0500383F3118857
:102C6000BFF36F8FBFF34F8FFEE72046BDE8F081C3
:102C700034010020380D002038010020440D0020D0
:102C8000400D00203C0D002010B5044670B3184ADA
:102C900050F8043C1268134208D14FF0500383F3FC
:102CA0001188BFF36F8FBFF34F8FFEE750F8081CFA
:102CB00041B14FF0500383F31188BFF36F8FBFF31F
:102CC0004F8FFEE723EA020340F8043C00F078F956
:102CD000084A54F8043C1168A4F108000B4413603E
:102CE000FFF720FFBDE8104000F004BA10BD00BFA0
:102CF000380D00203C0D0020064A13681968064B69
:102D000019B94FF0FF321A6070471268D268D26862
:102D10005268F8E7500D0020280E0020F8B51B4B34
:102D20001B4E1D680446306804300F46FFF788FDCF
:102D3000334640B93168174EC96A3268012088406D
:102D400022EA00023260621C07D137B119681248CA
:102D50000431BDE8F840FFF750BD2C441A68A54285
:102D6000546007D90D4A10681968BDE8F84004316D
:102D7000FFF74FBD0A4A106819680431FFF749FD93
:102D8000084B1A68944238BF1C60F8BD700E0020D2
:102D90004C0D0020F80D0020480E0020540D00209E
:102DA000500D0020280E00202DE9F84F4FEA820A2E
:102DB000804650460F4699460B9EFFF7D7FE0546C4
:102DC000002800F096805420FFF7D0FE044600282B
:102DD00000F08C80AAF1040A056355447B1E25F09F
:102DE000070A00F134020F37597802F8011B13F873
:102DF000011F09B1BB42F7D10A9D062D28BF062548
:102E00004FF0000B271DE5626564384684F843B037
:102E1000C4F848B0FFF7EEFCC5F1070504F118004F
:102E2000FFF7E8FCC4F84CB02461A561646284F843
:102E300050B04A4641465046FFF744FD206006B177
:102E40003460FFF767FD324B324E1A68DFF8F080CE
:102E500001321A603568002D4ED134601B68012B99
:102E60001DD108EB05001435FFF7B9FC8C2DF8D106
:102E7000DFF8D090284D4846FFF7B1FC2846FFF711
:102E8000AEFC2648FFF7ABFC2548FFF7A8FC254819
:102E9000FFF7A5FC244BC3F80090244B1D60244A87
:102EA00024491368086801331360E26A012505FAB2
:102EB00002F3034314200B6000FB02803946FFF746
:102EC0009CFCFFF749FD1C4B1B6863B13368DA6A51
:102ED000E36A9A4207D2194B4FF080521A60BFF34F
:102EE0004F8FBFF36F8F2846BDE8F88F2846FFF756
:102EF000CBFE4FF0FF35F6E70F4B1B68002BCED112
:102F00003368DA6AE36A9A4298BF3460C7E700BF61
:102F1000E40D00204C0D0020100E0020300E00208B
:102F20005C0E0020480E0020500D0020540D0020A3
:102F3000F40D0020F80D0020440E002004ED00E008
:102F4000580D0020FC0D002013B5174B01930024F1
:102F500000942346802215491548FFF725FF0128D4
:102F600014D14FF0500383F31188BFF36F8FBFF379
:102F70004F8F104B4FF0FF321A600F4B18600F4B02
:102F80001C6002B0BDE81040FFF756BD013008D10B
:102F90004FF0500383F31188BFF36F8FBFF34F8F50
:102FA000FEE702B010BD00BF240E0020343A000836
:102FB0002D320008280E0020440E0020700E002044
:102FC000024A136801331360704700BFF00D002000
:102FD0002DE9F84F3C4B1B68002B53D13B4B1C6831
:102FE00001341C60BCB93A4B1A68126842B14FF008
:102FF000500383F31188BFF36F8FBFF34F8FFEE74A
:10300000344A1968106818601160334A1368013334
:103010001360FFF771FE314D314F2B689C424FF02A
:10302000000B3ED3DFF8A880DFF8C490D8F800206A
:10303000126872BB4FF0FF322A6032E006F1040AD8
:103040005046FFF7FDFBB16A19B106F11800FFF712
:10305000F7FBF06AD9F80030012202FA00F11943B7
:10306000204BC9F800104FF0140E51460EFB0030F3
:10307000FFF7C3FB3868F16AC26A914228BF4FF07C
:10308000010BD3E7184A1368013313604FF0000BAC
:1030900011E0D8F80020D268D66871688C42CDD291
:1030A00029603A680F4BD16A14224A439A58022A7F
:1030B00028BF4FF0010B0D4A1268002A18BF4FF0CD
:1030C000010B5846BDE8F88FF00D0020700E00206F
:1030D000500D0020540D00202C0E0020280E002042
:1030E0004C0D0020580D0020EC0D0020740E002027
:1030F000F80D00202DE9F843314C236843B94FF017
:10310000500383F31188BFF36F8FBFF34F8FFEE738
:10311000FFF700FC2368013B236024682CB10024E6
:10312000FFF71AFC2046BDE8F883264B1B68002BEE
:10313000F5D0DFF8A890244FDFF8A480D9F800304C
:10314000E3B90CB1FFF7D8FD204D2C6844B1204EF7
:103150000127FFF73DFF00B13760013CF9D12C603A
:103160001B4B1B68002BDAD01A4B4FF080521A60B1
:10317000BFF34F8FBFF36F8F0124D1E7D9F80C3025
:10318000DC68261D04F11800FFF75AFB3046FFF7F4
:1031900057FBE26A3968012505FA02F314200B4354
:1031A00000FB028031463B60FFF727FB0A4BE26AD7
:1031B0001B68DB6A9A4224BF054B1D60BEE700BF57
:1031C000F00D0020E40D0020F80D0020EC0D002093
:1031D000740E002004ED00E04C0D0020300E0020A5
:1031E000580D002008B540B90E4B4FF080521A60C0
:1031F000BFF34F8FBFF36F8F08BD0B4B196841B101
:103200004FF0500383F31188BFF36F8FBFF34F8FDD
:10321000FEE7FFF7D5FEFFF781FDFFF76BFF002804
:10322000E2D008BD04ED00E0F00D002008B5174E17
:10323000174C236863B9174B1B68012BF8D9164B41
:103240004FF080521A60BFF34F8FBFF36F8FEFE7DD
:10325000FFF7B6FE3568FFF74DFF002DE9D0FFF709
:1032600059FBF368DD68281DFFF7EAFA0B4A13687B
:10327000013B13602368013B2360FFF76DFB286B64
:10328000FFF702FD2846FFF7FFFCD2E75C0E0020A7
:10329000E80D0020580D002004ED00E0E40D0020B2
:1032A000174B1A68174B10B512B101221A6010BDE6
:1032B0001A60154B1B68B3FA83F3DBB2C3F11F032B
:1032C000142212495A4388188C5844B94FF05003BD
:1032D00083F31188BFF36F8FBFF34F8FFEE744680E
:1032E0000832646844600A44944204BF62684260E1
:1032F000142202FB03135B68DA68054BD6E700BFB4
:10330000F00D0020740E0020F80D0020580D002054
:103310004C0D0020054B1B6833B1054B1B68002B7F
:103320000CBF02200020704701207047440E00208F
:10333000F00D002008B500F065F90120FFF73DFA17
:10334000FBE730B5A7B04FF4803307930D934FF4EC
:10335000E013012202240E9306A80023069209928C
:103360000C940F93FDF7C0FF00B1FEE70F2503900B
:103370004FF480630590214601A8019502940493BF
:10338000FEF760FA00B1FEE74FF40033259010A875
:103390001093FEF73DFB044600B1FEE7FEF7FCFA92
:1033A0004FF47A73B0FBF3F0FCF790FF0420FCF7C6
:1033B000A3FF224629464FF0FF30FCF747FF27B016
:1033C00030BD000000B589B0FCF70AFFFFF7B9FF78
:1033D0001D4B1E485A691E4D42F480025A615A69BB
:1033E00002F480020092009A5A6942F400025A6183
:1033F0005A6902F400020192019A5A6942F40032B9
:103400005A615B6903F40033002202934021029B5E
:10341000FDF74EF840230026039303A901230B4830
:10342000049305960696FCF773FF0FCD03AC0FC40B
:103430002B682360314603A8FFF7A7F9054B1860F6
:10344000FFF79EF9FEE700BF001002400018004899
:10345000003A00084C2A00200268034B9A4201D12E
:10346000FCF7D0BE704700BF002C0140FEE7000013
:10347000214B07B59A6942F001029A619A6902F0FC
:1034800001020092009ADA6942F08052DA61DB6947
:1034900003F0805301930320019BFCF7C5FE00223B
:1034A00011466FF00B00FCF7D1FE002211466FF0C1
:1034B0000A00FCF7CBFE002211466FF00900FCF772
:1034C000C5FE002211466FF00400FCF7BFFE00228B
:1034D00011466FF00300FCF7B9FE00220F216FF0D8
:1034E0000100FCF7B3FE00220F214FF0FF30FCF784
:1034F000ADFE03B05DF804FB0010024010B50146BC
:1035000088B000221920FCF7A1FE1920FCF7D2FE9A
:10351000144B154C9A6942F400629A619B6903F45A
:103520000063029301A903A8029BFEF753FAFEF77A
:1035300039FA0E4B236040F2E733E3600C4BB0FBEB
:10354000F3F001380023606020462361A360FEF79A
:10355000CDFC20B92046FEF7A0FB08B010BD01202D
:10356000FBE700BF00100240502A0020002C014061
:1035700040420F007047FEE7FEE7FEE7FEE77047B8
:10358000FFF723B90148FDF773BB00BFB42C00203F
:103590000148FEF791BB00BF502A00201549D1F821
:1035A000883043F47003C1F88830134B1A6842F036
:1035B00001021A605868114A02405A601A6822F0E3
:1035C000847222F480321A601A6822F480221A600F
:1035D0005A6822F4FE025A60DA6A22F00F02DA62B6
:1035E000186B074A02401A6300229A604FF000638A
:1035F0008B60704700ED00E0001002400CC07FF8C7
:10360000CCFC00FF10B50C4C0C4900222046FEF704
:103610009CFD0B492046FEF7ADFD0A492046FEF70A
:103620008FFD2046FEF7ADFD012240210648BDE892
:103630001040FCF73DBF00BF902A0020DC000020B6
:1036400004000020C000002000180048002070473F
:10365000002070470020704700207047002070470E
:10366000002070470020704707B50D4B02689A4252
:1036700012D103F5DA331420DA6942F40002DA6178
:10368000DB6903F40003019300220521019BFCF791
:10369000DDFD1420FCF70EFE03B05DF804FB00BF57
:1036A000005C004000F55D71D0F8A403FEF780BD1A
:1036B0001C2303FB0103D0F8A403D3F8DC21FEF79D
:1036C000A4BD1C2303FB0103D0F8A4039A6BFEF7EF
:1036D000CEBDD0F8A403FEF74ABE10B504460121C2
:1036E000D0F8A403FEF731FED4F8A403BDE81040DF
:1036F000FEF70CBE10B50446D0F8A403FEF728FE72
:10370000A36923B1024A136943F00603136110BD94
:1037100000ED00E0D0F8A403FEF723BE10B5154A73
:1037200004461548082380E80C00C0F8A443002391
:103730000222C4F820028260C36002618361C36117
:103740000362FCF7BAFE20B14FF497710B48FFF704
:103750008DFE002211461823D4F82002FDF77DFDCE
:10376000582300228021D4F82002FDF776FD0020A6
:1037700010BD00BF005C0040B42C0020613A00087E
:1037800008B5D0F82002FCF7ECFE03289ABF024BE4
:10379000185C022008BD00BF5D3A000810B51C4649
:1037A000D0F8200213462246FCF7F8FE03289ABF01
:1037B000014B185C022010BD5D3A000808B5D0F836
:1037C0002002FDF77FF803289ABF024B185C022005
:1037D00008BD00BF5D3A000808B5D0F82002FDF72B
:1037E00087FC03289ABF024B185C022008BD00BF6B
:1037F0005D3A000808B5D0F82002FDF7CAFC03289E
:103800009ABF024B185C022008BD00BF5D3A000859
:1038100011F0800FD0F820324FF01C021BBF01F0D6
:103820007F0102FB013102FB013191F82A0008BF40
:1038300091F8CE017047000008B5D0F82002FCF7DF
:1038400096FE03289ABF024B185C022008BD00BFF9
:103850005D3A000808B5D0F82002FDF78DF903287D
:103860009ABF024B185C022008BD00BF5D3A0008F9
:1038700008B5D0F82002FDF713F903289ABF024BD0
:10388000185C022008BD00BF5D3A00080048704780
:10389000780E00207047704712230B800048704755
:1038A000F800002004230B80004870470C01002022
:1038B00010B5044C04480A462146FEF703FF204693
:1038C00010BD00BF5C300020913A000810B5044CD8
:1038D00004480A462146FEF7F5FE204610BD00BF0B
:1038E0005C300020A43A000810B5044C04480A4695
:1038F0002146FEF7E7FE204610BD00BF5C300020E9
:10390000B63A000810B5044C04480A462146FEF7B2
:10391000D9FE204610BD00BF5C300020743A00087C
:1039200010B5044C04480A462146FEF7CBFE20465B
:1039300010BD00BF5C300020813A0008DFF834D0B1
:10394000002103E00C4B5B58435004310B480C4BF7
:1039500042189A42F6D30B4A02E0002342F8043B95
:10396000094B9A42F9D3FFF719FE00F011F8FFF75F
:1039700029FDFEE700000120CC3A000800000020ED
:1039800010010020100100205C320020FEE7000042
:1039900070B50D4E0D4CA41BA4100025A54209D1F5
:1039A0000B4E0C4C00F020F8A41BA4100025A542DF
:1039B00005D170BD56F8253098470135EEE756F829
:1039C000253098470135F2E7C43A0008C43A0008A8
:1039D000C43A0008C83A000802440346934200D1A2
:1039E000704703F8011BF9E7F8B500BFF8BC08BC45
:1039F0009E467047F8B500BFF8BC08BC9E467047AD
:103A0000393A0008353300080000000000000000CB
:103A10008000000002030405060708090A0B0C0DCC
:103A20000E0F10100102030405060708090A0B0C0B
:103A30000D0E0F1049444C450064656661756C7449
:103A40005461736B000000000000000000010203DD
:103A50000406070809000000000102030400020137
:103A6000022E2E5C5372635C757362645F636F6ECB
:103A7000662E6300415544494F20436F6E66696767
:103A800000415544494F20496E7465726661636513
:103A90000053544D6963726F656C656374726F6E29
:103AA0006963730053544D333220417564696F204C
:103AB000436C617373003030303030303030303030
:043AC0003141000090
:043AC400C501000830
:043AC800A101000850
:103ACC00010000001D200008F11F000881200008E3
:103ADC003D210008351F000835210008811F000812
:103AEC006B1F0008392100086F1F0008291F0008F0
:103AFC00291F0008291F0008751F000809026D0006
:103B0C00020100C032090400000001010000092478
:103B1C00010001270001010C240201010100010038
:103B2C00000000092406020101010000092403031E
:103B3C000103000200090401000001020000090455
:103B4C0001010101020000072401010101000B2405
:103B5C00020302021001545600090501015800012C
:103B6C000000072501000000000000000A0600020A
:103B7C000000004001000000AAAAAAAA00127A00C4
:103B8C004D360008513600085536000865360008D9
:103B9C0061360008593600085D360008993800086F
:103BAC00A5380008B1380008CD380008E9380008FD
:103BBC0005390008213900081201000200000040FC
:103BCC0083044057000201020301000004030904AE
:040000050800393D79
:00000001FF
